{
  "_format": "hh-sol-artifact-1",
  "contractName": "GreetingsPortal",
  "sourceName": "contracts/GreetingsPortal.sol",
  "abi": [
    {
      "inputs": [],
      "stateMutability": "payable",
      "type": "constructor"
    },
    {
      "anonymous": false,
      "inputs": [
        {
          "indexed": true,
          "internalType": "address",
          "name": "from",
          "type": "address"
        },
        {
          "indexed": false,
          "internalType": "uint256",
          "name": "timestamp",
          "type": "uint256"
        },
        {
          "indexed": false,
          "internalType": "string",
          "name": "message",
          "type": "string"
        }
      ],
      "name": "NewGreet",
      "type": "event"
    },
    {
      "inputs": [],
      "name": "getAllGreets",
      "outputs": [
        {
          "components": [
            {
              "internalType": "address",
              "name": "greeter",
              "type": "address"
            },
            {
              "internalType": "string",
              "name": "message",
              "type": "string"
            },
            {
              "internalType": "uint256",
              "name": "timestamp",
              "type": "uint256"
            }
          ],
          "internalType": "struct GreetingsPortal.Greeting[]",
          "name": "",
          "type": "tuple[]"
        }
      ],
      "stateMutability": "view",
      "type": "function"
    },
    {
      "inputs": [],
      "name": "getGreetingCount",
      "outputs": [
        {
          "internalType": "uint256",
          "name": "",
          "type": "uint256"
        },
        {
          "internalType": "uint256",
          "name": "",
          "type": "uint256"
        }
      ],
      "stateMutability": "view",
      "type": "function"
    },
    {
      "inputs": [
        {
          "internalType": "string",
          "name": "_message",
          "type": "string"
        }
      ],
      "name": "greet",
      "outputs": [],
      "stateMutability": "nonpayable",
      "type": "function"
    },
    {
      "inputs": [
        {
          "internalType": "address",
          "name": "",
          "type": "address"
        }
      ],
      "name": "greetingList",
      "outputs": [
        {
          "internalType": "uint256",
          "name": "",
          "type": "uint256"
        }
      ],
      "stateMutability": "view",
      "type": "function"
    },
    {
      "inputs": [
        {
          "internalType": "address",
          "name": "",
          "type": "address"
        }
      ],
      "name": "lastGreetedAt",
      "outputs": [
        {
          "internalType": "uint256",
          "name": "",
          "type": "uint256"
        }
      ],
      "stateMutability": "view",
      "type": "function"
    }
  ],
  "bytecode": "0x6080604052620000336040518060600160405280602e8152602001620017d3602e91396200005b60201b620007981760201c565b60644442620000439190620001a8565b6200004f919062000245565b600281905550620002ec565b620000fb8160405160240162000072919062000168565b6040516020818303038152906040527f41304fac000000000000000000000000000000000000000000000000000000007bffffffffffffffffffffffffffffffffffffffffffffffffffffffff19166020820180517bffffffffffffffffffffffffffffffffffffffffffffffffffffffff8381831617835250505050620000fe60201b60201c565b50565b60008151905060006a636f6e736f6c652e6c6f679050602083016000808483855afa5050505050565b600062000134826200018c565b62000140818562000197565b9350620001528185602086016200020f565b6200015d81620002db565b840191505092915050565b6000602082019050818103600083015262000184818462000127565b905092915050565b600081519050919050565b600082825260208201905092915050565b6000620001b58262000205565b9150620001c28362000205565b9250827fffffffffffffffffffffffffffffffffffffffffffffffffffffffffffffffff03821115620001fa57620001f96200027d565b5b828201905092915050565b6000819050919050565b60005b838110156200022f57808201518184015260208101905062000212565b838111156200023f576000848401525b50505050565b6000620002528262000205565b91506200025f8362000205565b925082620002725762000271620002ac565b5b828206905092915050565b7f4e487b7100000000000000000000000000000000000000000000000000000000600052601160045260246000fd5b7f4e487b7100000000000000000000000000000000000000000000000000000000600052601260045260246000fd5b6000601f19601f8301169050919050565b6114d780620002fc6000396000f3fe608060405234801561001057600080fd5b50600436106100575760003560e01c80632a6b5aee1461005c5780632e305ade1461007b57806340ca356314610099578063e2e4644a146100c9578063ead710c4146100f9575b600080fd5b610064610115565b604051610072929190611054565b60405180910390f35b610083610223565b6040516100909190610e82565b60405180910390f35b6100b360048036038101906100ae9190610bf0565b610374565b6040516100c09190611009565b60405180910390f35b6100e360048036038101906100de9190610bf0565b61038c565b6040516100f09190611009565b60405180910390f35b610113600480360381019061010e9190610c19565b6103a4565b005b6000806101596040518060400160405280601581526020017f57652068617665202564204772656574696e6773210000000000000000000000815250600054610831565b6101d86040518060400160405280601981526020017f2573206861732073656e74202564204772656574696e6773210000000000000081525033600160003373ffffffffffffffffffffffffffffffffffffffff1673ffffffffffffffffffffffffffffffffffffffff168152602001908152602001600020546108cd565b600054600160003373ffffffffffffffffffffffffffffffffffffffff1673ffffffffffffffffffffffffffffffffffffffff16815260200190815260200160002054915091509091565b60606003805480602002602001604051908101604052809291908181526020016000905b8282101561036b57838290600052602060002090600302016040518060600160405290816000820160009054906101000a900473ffffffffffffffffffffffffffffffffffffffff1673ffffffffffffffffffffffffffffffffffffffff1673ffffffffffffffffffffffffffffffffffffffff1681526020016001820180546102d090611218565b80601f01602080910402602001604051908101604052809291908181526020018280546102fc90611218565b80156103495780601f1061031e57610100808354040283529160200191610349565b820191906000526020600020905b81548152906001019060200180831161032c57829003601f168201915b5050505050815260200160028201548152505081526020019060010190610247565b50505050905090565b60016020528060005260406000206000915090505481565b60046020528060005260406000206000915090505481565b4261012c600460003373ffffffffffffffffffffffffffffffffffffffff1673ffffffffffffffffffffffffffffffffffffffff168152602001908152602001600020546103f29190611144565b10610432576040517f08c379a000000000000000000000000000000000000000000000000000000000815260040161042990610fe9565b60405180910390fd5b42600460003373ffffffffffffffffffffffffffffffffffffffff1673ffffffffffffffffffffffffffffffffffffffff1681526020019081526020016000208190555060016000808282546104889190611144565b9250508190555060018060003373ffffffffffffffffffffffffffffffffffffffff1673ffffffffffffffffffffffffffffffffffffffff16815260200190815260200160002060008282546104de9190611144565b9250508190555061050860405180606001604052806021815260200161148160219139338361096c565b600360405180606001604052803373ffffffffffffffffffffffffffffffffffffffff16815260200183815260200142815250908060018154018082558091505060019003906000526020600020906003020160009091909190915060008201518160000160006101000a81548173ffffffffffffffffffffffffffffffffffffffff021916908373ffffffffffffffffffffffffffffffffffffffff16021790555060208201518160010190805190602001906105c7929190610ad0565b50604082015181600201555050606460025442446105e59190611144565b6105ef9190611144565b6105f9919061127b565b600281905550601e60025411610745576106486040518060400160405280600681526020017f257320776f6e000000000000000000000000000000000000000000000000000081525033610a0b565b6000655af3107a4000905047811115610696576040517f08c379a000000000000000000000000000000000000000000000000000000000815260040161068d90610fa9565b60405180910390fd5b60003373ffffffffffffffffffffffffffffffffffffffff16826040516106bc90610e6d565b60006040518083038185875af1925050503d80600081146106f9576040519150601f19603f3d011682016040523d82523d6000602084013e6106fe565b606091505b5050905080610742576040517f08c379a000000000000000000000000000000000000000000000000000000000815260040161073990610fc9565b60405180910390fd5b50505b3373ffffffffffffffffffffffffffffffffffffffff167fe74e6be362166704c24f3aa56c5d489c5c9dec60c4fc071359c0f6f78eef6a45428360405161078d929190611024565b60405180910390a250565b61082e816040516024016107ac9190610ea4565b6040516020818303038152906040527f41304fac000000000000000000000000000000000000000000000000000000007bffffffffffffffffffffffffffffffffffffffffffffffffffffffff19166020820180517bffffffffffffffffffffffffffffffffffffffffffffffffffffffff8381831617835250505050610aa7565b50565b6108c98282604051602401610847929190610f79565b6040516020818303038152906040527f9710a9d0000000000000000000000000000000000000000000000000000000007bffffffffffffffffffffffffffffffffffffffffffffffffffffffff19166020820180517bffffffffffffffffffffffffffffffffffffffffffffffffffffffff8381831617835250505050610aa7565b5050565b6109678383836040516024016108e593929190610f3b565b6040516020818303038152906040527f07c81217000000000000000000000000000000000000000000000000000000007bffffffffffffffffffffffffffffffffffffffffffffffffffffffff19166020820180517bffffffffffffffffffffffffffffffffffffffffffffffffffffffff8381831617835250505050610aa7565b505050565b610a0683838360405160240161098493929190610ef6565b6040516020818303038152906040527fe0e9ad4f000000000000000000000000000000000000000000000000000000007bffffffffffffffffffffffffffffffffffffffffffffffffffffffff19166020820180517bffffffffffffffffffffffffffffffffffffffffffffffffffffffff8381831617835250505050610aa7565b505050565b610aa38282604051602401610a21929190610ec6565b6040516020818303038152906040527f319af333000000000000000000000000000000000000000000000000000000007bffffffffffffffffffffffffffffffffffffffffffffffffffffffff19166020820180517bffffffffffffffffffffffffffffffffffffffffffffffffffffffff8381831617835250505050610aa7565b5050565b60008151905060006a636f6e736f6c652e6c6f679050602083016000808483855afa5050505050565b828054610adc90611218565b90600052602060002090601f016020900481019282610afe5760008555610b45565b82601f10610b1757805160ff1916838001178555610b45565b82800160010185558215610b45579182015b82811115610b44578251825591602001919060010190610b29565b5b509050610b529190610b56565b5090565b5b80821115610b6f576000816000905550600101610b57565b5090565b6000610b86610b81846110a2565b61107d565b905082815260208101848484011115610b9e57600080fd5b610ba98482856111d6565b509392505050565b600081359050610bc081611469565b92915050565b600082601f830112610bd757600080fd5b8135610be7848260208601610b73565b91505092915050565b600060208284031215610c0257600080fd5b6000610c1084828501610bb1565b91505092915050565b600060208284031215610c2b57600080fd5b600082013567ffffffffffffffff811115610c4557600080fd5b610c5184828501610bc6565b91505092915050565b6000610c668383610dff565b905092915050565b610c778161119a565b82525050565b610c868161119a565b82525050565b6000610c97826110e3565b610ca18185611106565b935083602082028501610cb3856110d3565b8060005b85811015610cef5784840389528151610cd08582610c5a565b9450610cdb836110f9565b925060208a01995050600181019050610cb7565b50829750879550505050505092915050565b6000610d0c826110ee565b610d168185611122565b9350610d268185602086016111e5565b610d2f81611368565b840191505092915050565b6000610d45826110ee565b610d4f8185611133565b9350610d5f8185602086016111e5565b610d6881611368565b840191505092915050565b6000610d80603483611133565b9150610d8b82611379565b604082019050919050565b6000610da3602783611133565b9150610dae826113c8565b604082019050919050565b6000610dc6600083611117565b9150610dd182611417565b600082019050919050565b6000610de9602f83611133565b9150610df48261141a565b604082019050919050565b6000606083016000830151610e176000860182610c6e565b5060208301518482036020860152610e2f8282610d01565b9150506040830151610e446040860182610e4f565b508091505092915050565b610e58816111cc565b82525050565b610e67816111cc565b82525050565b6000610e7882610db9565b9150819050919050565b60006020820190508181036000830152610e9c8184610c8c565b905092915050565b60006020820190508181036000830152610ebe8184610d3a565b905092915050565b60006040820190508181036000830152610ee08185610d3a565b9050610eef6020830184610c7d565b9392505050565b60006060820190508181036000830152610f108186610d3a565b9050610f1f6020830185610c7d565b8181036040830152610f318184610d3a565b9050949350505050565b60006060820190508181036000830152610f558186610d3a565b9050610f646020830185610c7d565b610f716040830184610e5e565b949350505050565b60006040820190508181036000830152610f938185610d3a565b9050610fa26020830184610e5e565b9392505050565b60006020820190508181036000830152610fc281610d73565b9050919050565b60006020820190508181036000830152610fe281610d96565b9050919050565b6000602082019050818103600083015261100281610ddc565b9050919050565b600060208201905061101e6000830184610e5e565b92915050565b60006040820190506110396000830185610e5e565b818103602083015261104b8184610d3a565b90509392505050565b60006040820190506110696000830185610e5e565b6110766020830184610e5e565b9392505050565b6000611087611098565b9050611093828261124a565b919050565b6000604051905090565b600067ffffffffffffffff8211156110bd576110bc611339565b5b6110c682611368565b9050602081019050919050565b6000819050602082019050919050565b600081519050919050565b600081519050919050565b6000602082019050919050565b600082825260208201905092915050565b600081905092915050565b600082825260208201905092915050565b600082825260208201905092915050565b600061114f826111cc565b915061115a836111cc565b9250827fffffffffffffffffffffffffffffffffffffffffffffffffffffffffffffffff0382111561118f5761118e6112ac565b5b828201905092915050565b60006111a5826111ac565b9050919050565b600073ffffffffffffffffffffffffffffffffffffffff82169050919050565b6000819050919050565b82818337600083830152505050565b60005b838110156112035780820151818401526020810190506111e8565b83811115611212576000848401525b50505050565b6000600282049050600182168061123057607f821691505b602082108114156112445761124361130a565b5b50919050565b61125382611368565b810181811067ffffffffffffffff8211171561127257611271611339565b5b80604052505050565b6000611286826111cc565b9150611291836111cc565b9250826112a1576112a06112db565b5b828206905092915050565b7f4e487b7100000000000000000000000000000000000000000000000000000000600052601160045260246000fd5b7f4e487b7100000000000000000000000000000000000000000000000000000000600052601260045260246000fd5b7f4e487b7100000000000000000000000000000000000000000000000000000000600052602260045260246000fd5b7f4e487b7100000000000000000000000000000000000000000000000000000000600052604160045260246000fd5b6000601f19601f8301169050919050565b7f547279696e6720746f207769746864726177206d6f7265206d6f6e657920746860008201527f616e2074686520636f6e7472616374206861732e000000000000000000000000602082015250565b7f4661696c656420746f207769746864726177206d6f6e65792066726f6d20636f60008201527f6e74726163742e00000000000000000000000000000000000000000000000000602082015250565b50565b7f576169742035204d696e75746573206265666f72652073656e64696e6720616e60008201527f6f74686572204772656574696e67210000000000000000000000000000000000602082015250565b6114728161119a565b811461147d57600080fd5b5056fe2573206861732073656e74207468656972204772656574696e6773212028257329a2646970667358221220b5fbb377a92d1e72b30fc81c1d12910f97ed78daf11a8cffb14c2a8c3f016a3664736f6c63430008040033474d2c204920414d204120534d41525420434f4e54524143542c20524541445920544f20534552564520594f552e",
  "linkReferences": {},
  "deployedLinkReferences": {}
}